:0400000007EF00F016
:0A0008007E8254ED0AF0F8EF14F0C8
:10100000003738392F3435362A3132332D23303DED
:101010002B41697220436F6E646974696F6E696EEB
:1010200067204F6E0020202020202020202020201C
:1010300020202020200047657474696E6720686F47
:10104000747465722000436F6F6C657220626F6FFD
:101050007374206F6E0047657474696E6720636FE8
:101060006F6C6572004974277320686F74206E6F0F
:0D107000770054656D703A2000256900007E
:10107E001350800B1C6E13501324226E12AE4AEFC7
:10108E0008F04CEF08F04DEF08F022802250D8B453
:10109E0053EF08F055EF08F068EF08F02228D8A4B7
:1010AE005BEF08F05DEF08F065EF08F0000E106ED4
:1010BE00000E116E000E126E000E136E128E70EF79
:1010CE0008F0000E106E000E116E000E126E000E65
:1010DE00136E1750800B1C1A175017241D6E16AE68
:1010EE007BEF08F07DEF08F07EEF08F01D801D50BD
:1010FE00D8B484EF08F086EF08F099EF08F01D28B9
:10110E00D8A48CEF08F08EEF08F096EF08F0000EE2
:10111E00146E000E156E000E166E000E176E168EE5
:10112E00A1EF08F0000E146E000E156E000E166E76
:10113E00000E176E1D50D8B4A7EF08F0A9EF08F0F7
:10114E00B1EF08F02250D8A4AFEF08F0B1EF08F0DD
:10115E00BBEF08F0000E106E000E116E000E126E38
:10116E00000E136E53EF0AF016501002F3CF27F055
:10117E00F4CF28F027501E6E1F6A206A216A28506D
:10118E00236E246A256A266A15501102F3CF27F0C2
:10119E00F4CF28F027501E26000E1F2220222122D7
:1011AE0028502326000E2422252226221450120215
:1011BE00F3CF27F0F4CF28F027501E26000E1F2263
:1011CE002022212228502326000E242225222622E8
:1011DE0020C021F01FC020F01EC01FF01E6A145048
:1011EE001102F3CF27F0F4CF28F027501E262850F7
:1011FE001F22000E2022000E212215501002F3CFC6
:10120E0027F0F4CF28F027501E2628501F22000E5C
:10121E002022000E212220C021F01FC020F01EC06F
:10122E001FF01E6A14501002F3CF27F0F4CF28F0EF
:10123E0027501E2628501F22000E2022000E21228B
:10124E0016501102F3CF27F0F4CF28F027502326A3
:10125E0028502422000E2522000E2622155012029E
:10126E00F3CF27F0F4CF28F027502326285024223E
:10127E00000E2522000E262216501202F3CF27F062
:10128E00F4CF28F02750186E2850196E1A6A1B6A70
:10129E001AC01BF019C01AF018C019F0186A1850AD
:1012AE002326195024221A5025221B5026221EC0F6
:1012BE0018F01FC019F020C01AF021C01BF0190E33
:1012CE006EEF09F0D8901B321A3219321832E82E0E
:1012DE0069EF09F018502326195024221A5025229E
:1012EE001B50262220C021F01FC020F01EC01FF070
:1012FE001E6A1D5022C018F0196A1826000E1922F7
:10130E00820E1824276EFF0E1920286EA4EF09F006
:10131E00D890233624362536263621AE99EF09F09D
:10132E009BEF09F09CEF09F02380D8901E361F36F4
:10133E00203621362706D8A0280625AEA9EF09F0BB
:10134E00ABEF09F08FEF09F0000E1D6E21AEB2EF7C
:10135E0009F0B4EF09F0D8EF09F0FF0E1E14186E65
:10136E00FF0E1F14196EFF0E20141A6E7F0E21141D
:10137E001B6E185019101A101B10D8B4C9EF09F0B3
:10138E00CBEF09F0CFEF09F0010E1D6ED8EF09F08B
:10139E0023A0D4EF09F0D6EF09F0D8EF09F0CBEF88
:1013AE0009F01D50D8B4DEEF09F0E0EF09F004EFBC
:1013BE000AF0010E2326000E24222522262226A024
:1013CE00EBEF09F0EDEF09F004EF0AF023C018F08F
:1013DE0024C019F025C01AF026C01BF01B341B3296
:1013EE001A321932183218C023F019C024F01AC05C
:1013FE0025F01BC026F0274A282A28BE0FEF0AF038
:10140E00285008E12728D8A00FEF0AF011EF0AF0B4
:10141E001BEF0AF0000E236E000E246E800E256E5A
:10142E007F0E266E49EF0AF028BE28EF0AF02850EC
:10143E0006E12704D8B026EF0AF028EF0AF034EFC1
:10144E000AF0000E236E000E246E000E256E000EA6
:10145E00266E000E1C6E49EF0AF027C022F0FF0E1A
:10146E002316FF0E24167F0E2516000E261622A01A
:10147E0043EF0AF045EF0AF046EF0AF0258ED890BA
:10148E002230266E1C50261223C010F024C011F0FC
:10149E0025C012F026C013F012000600F2A85AEF73
:1014AE000AF05CEF0AF065EF0AF0F2A261EF0AF0C3
:1014BE0063EF0AF065EF0AF0EEEC17F0F0A66AEFB4
:1014CE000AF06CEF0AF075EF0AF0F0A071EF0AF077
:1014DE0073EF0AF075EF0AF0ECEC17F0F0A87AEF64
:1014EE000AF07CEF0AF085EF0AF0F0A281EF0AF025
:1014FE0083EF0AF085EF0AF0EAEC17F0F2A68AEF16
:10150E000AF08CEF0AF0A7EF0AF0F2A091EF0AF0C2
:10151E0093EF0AF0A7EF0AF081A898EF0AF09AEF7E
:10152E000AF0A7EF0AF07804D8A4A0EF0AF0A2EF11
:10153E000AF0A7EF0AF0000E786E000EBAEC17F064
:10154E00F2A6ACEF0AF0AEEF0AF0C9EF0AF0F2A085
:10155E00B3EF0AF0B5EF0AF0C9EF0AF081B8BAEFAF
:10156E000AF0BCEF0AF0C9EF0AF07850D8A4C2EF27
:10157E000AF0C4EF0AF0C9EF0AF0010E786E010E00
:10158E00BAEC17F0F2A6CEEF0AF0D0EF0AF0EBEFBE
:10159E000AF0F2A0D5EF0AF0D7EF0AF0EBEF0AF05F
:1015AE0081AADCEF0AF0DEEF0AF0EBEF0AF0770427
:1015BE00D8A4E4EF0AF0E6EF0AF0EBEF0AF0000E23
:1015CE00776E000EADEC17F0F2A6F0EF0AF0F2EF28
:1015DE000AF00DEF0BF0F2A0F7EF0AF0F9EF0AF0B8
:1015EE000DEF0BF081BAFEEF0AF000EF0BF00DEFEE
:1015FE000BF07750D8A406EF0BF008EF0BF00DEFC1
:10160E000BF0010E776E010EADEC17F0F2A612EF95
:10161E000BF014EF0BF02FEF0BF0F2A019EF0BF015
:10162E001BEF0BF02FEF0BF081AC20EF0BF022EF46
:10163E000BF02FEF0BF07604D8A428EF0BF02AEF67
:10164E000BF02FEF0BF0000E766E000EA0EC17F0E5
:10165E00F2A634EF0BF036EF0BF051EF0BF0F2A0D9
:10166E003BEF0BF03DEF0BF051EF0BF081BC42EF77
:10167E000BF044EF0BF051EF0BF07650D8A44AEF7D
:10168E000BF04CEF0BF051EF0BF0010E766E010EDE
:10169E00A0EC17F0F2A656EF0BF058EF0BF073EF2D
:1016AE000BF0F2A05DEF0BF05FEF0BF073EF0BF0B2
:1016BE0081AE64EF0BF066EF0BF073EF0BF0750479
:1016CE00D8A46CEF0BF06EEF0BF073EF0BF0000E77
:1016DE00756E000E93EC17F0F2A678EF0BF07AEF22
:1016EE000BF095EF0BF0F2A07FEF0BF081EF0BF00C
:1016FE0095EF0BF081BE86EF0BF088EF0BF095EFB8
:10170E000BF07550D8A48EEF0BF090EF0BF095EF19
:10171E000BF0010E756E010E93EC17F09DAC9AEF67
:10172E000BF09CEF0BF0A5EF0BF09EACA1EF0BF0C6
:10173E00A3EF0BF0A5EF0BF0F6EC17F0F2AAAAEF61
:10174E000BF0ACEF0BF0B5EF0BF0F2A4B1EF0BF02A
:10175E00B3EF0BF0B5EF0BF0DBEC17F09DA0BAEF8B
:10176E000BF0BCEF0BF0C5EF0BF09EA0C1EF0BF032
:10177E00C3EF0BF0C5EF0BF0D5EC17F09DA2CAEF3F
:10178E000BF0CCEF0BF0D5EF0BF09EA2D1EF0BF0E0
:10179E00D3EF0BF0D5EF0BF0E1EC17F0A0A2DAEFE0
:1017AE000BF0DCEF0BF0E5EF0BF0A1A2E1EF0BF08D
:1017BE00E3EF0BF0E5EF0BF0CFEC17F09DA4EAEFA3
:1017CE000BF0ECEF0BF0F5EF0BF09EA4F1EF0BF03E
:1017DE00F3EF0BF0F5EF0BF0F4EC17F0A0A0FAEF2F
:1017EE000BF0FCEF0BF005EF0CF0A1A001EF0CF0ED
:1017FE0003EF0CF005EF0CF0F2EC17F09DA80AEFDA
:10180E000CF00CEF0CF015EF0CF09EA811EF0CF095
:10181E0013EF0CF015EF0CF0F0EC17F09DAA1AEF89
:10182E000CF01CEF0CF025EF0CF09EAA21EF0CF043
:10183E0023EF0CF025EF0CF0F9EC17F09DA62AEF34
:10184E000CF02CEF0CF035EF0CF09EA631EF0CF0F7
:10185E0033EF0CF035EF0CF0E8EC17F07E92110040
:10186E00E5EC17F0DEEC15F0DB0E096E000E0A6EDD
:10187E006C0E0B6E29EC15F0F60E146E280E156E0E
:10188E009C0E166E400E176E6CC002F06DC003F00B
:10189E00046A056A000E16EC0EF002C010F003C0CA
:1018AE0011F004C012F005C013F03FEC08F010C0A8
:1018BE0029F011C02AF012C02BF013C02CF00BEC43
:1018CE0010F029C039F02AC03AF039C002F03AC0FF
:1018DE0003F0000E056E0A0E046E86EC14F002C0C4
:1018EE0039F003C03AF039C02CF03AC02DF0B60EE4
:1018FE002E6E2EEC13F0E20E166E010E176E010E0A
:10190E00186E720E196E1950D8A4100E1A6EC7ECFE
:10191E0013F0E20E166E010E176E070E186EB60E4F
:10192E00196E1A6AC7EC13F03A5009E1150E395CBC
:10193E00D8A0A4EF0CF0A6EF0CF0BAEF0CF0E20E6C
:10194E00166E020E176E020E186E650E196E195077
:10195E00D8A4100E1A6EC7EC13F07B0E0A6EA8EC0C
:10196E0016F0E5EF0CF03A5007E1140E395CD8B0E2
:10197E00C3EF0CF0C5EF0CF0E5EF0CF0E20E166EB7
:10198E00020E176E020E186E560E196E1950D8A44E
:10199E00100E1A6EC7EC13F07B0E0A6E8CEC16F05E
:1019AE00E20E166E030E176E020E186E250E196ECF
:1019BE001950D8A4100E1A6EC7EC13F03A5009E164
:1019CE001A0E395CD8A0EEEF0CF0F0EF0CF025EF0C
:1019DE000DF0E20E166E020E176E020E186E360E19
:1019EE00196E1950D8A4100E1A6EC7EC13F0000120
:1019FE00E86FE20E166E030E176E020E186E460E8E
:101A0E00196E1950D8A4100E1A6EC7EC13F00001FF
:101A1E00E86F060E386E130E376EAE0EE82EFED73A
:101A2E00372EFCD7382EFAD7790E0A6EA8EC16F0A0
:101A3E007D0E0A6E12EC14F03BEF0CF0790E0A6E6E
:101A4E008CEC16F00001E86F7D0E0A6E4CEC14F073
:101A5E000001E86F3BEF0CF007EF00F00D50D96E70
:101A6E00DA6ADFCFF6FF100EF76EF86A0800F5504F
:101A7E00250AD8A445EF0DF047EF0DF003EF0EF059
:101A8E000D50D96EDA6ADF2A000E0001A76F000E24
:101A9E00A66FA6C063F0A869A9690D50D96EDA6A5F
:101AAE00DF50116E11C0F6FF100EF76EF86A0800C7
:101ABE00F550640AD8B466EF0DF068EF0DF077EFCD
:101ACE000DF011C0F6FF100EF76EF86A0800F55013
:101ADE00690AD8A475EF0DF077EF0DF0FDEF0DF05C
:101AEE000E50D96EDA6A020EDF26DF5CD96EDA6A24
:101AFE00DECF12F0DECF13F00D50D96EDA6A112858
:101B0E00DF6E200E166E13BE8FEF0DF092EF0DF0FE
:101B1E00010E93EF0DF0000E106E16061650800F8C
:101B2E00D96EDA6A12C002F013C003F0000E056E11
:101B3E000A0E046E2BEC12F002C008F003C009F07E
:101B4E00FAEC16F00850300FDF6E12C002F013C020
:101B5E0003F0000E056E0A0E046E6DEC11F002C05D
:101B6E0012F003C013F012501310D8B4C1EF0DF0E1
:101B7E00C3EF0DF0CBEF0DF01650D8A4C9EF0DF05A
:101B8E00CBEF0DF094EF0DF01650D8B4D1EF0DF061
:101B9E00D3EF0DF0F2EF0DF01050D8B4D9EF0DF0E9
:101BAE00DBEF0DF0F2EF0DF016061650800FD96E2A
:101BBE00DA6A2D0EDF6EF2EF0DF01650800FD96E31
:101BCE00DA6ADF500F6E0F50026E036A0CC004F01B
:101BDE00D9EC12F0162A200E1618D8A4F9EF0DF033
:101BEE00FBEF0DF0E4EF0DF015EF0EF00D50D96E8A
:101BFE00DA6ADF2A15EF0EF00D50D96EDA6ADFCFF2
:101C0E00F6FF100EF76EF86A0800F550026E036AC2
:101C1E000CC004F0D9EC12F0FDEF0DF012000A6EBC
:101C2E000A50D8B41DEF0EF01FEF0EF041EF0EF07C
:101C3E0005BE26EF0EF024EF0EF041EF0EF002C0BF
:101C4E0006F003C007F004C008F005C009F0061E38
:101C5E00071E081E091E062A000E07220822092248
:101C6E0006C00CF007C00DF008C00EF009C00FF052
:101C7E0049EF0EF002C00CF003C00DF004C00EF0E0
:101C8E0005C00FF00250031004100510D8A452EF37
:101C9E000EF054EF0EF05EEF0EF0000E026E000E20
:101CAE00036E000E046E000E056EEFEF0EF0960E34
:101CBE000B6E68EF0EF00B2AD8900F320E320D32EB
:101CCE000C32000E0C14066E000E0D14076E000E74
:101CDE000E14086EFE0E0F14096E06500710081033
:101CEE000910D8A47DEF0EF07FEF0EF062EF0EF02C
:101CFE008DEF0EF00B2A010E0C26000E0D220E2279
:101D0E000F22D8900F320E320D320C32000E0C1400
:101D1E00066E000E0D14076E000E0E14086EFF0EEA
:101D2E000F14096E0650071008100910D8A4A2EF60
:101D3E000EF0A4EF0EF081EF0EF0ACEF0EF00B06EE
:101D4E00D8900C360D360E360F360EBEB1EF0EF0A5
:101D5E00B3EF0EF0BBEF0EF0020E0B60B9EF0EF00C
:101D6E00BBEF0EF0A6EF0EF00BB0C0EF0EF0C2EF11
:101D7E000EF0C3EF0EF00E9ED8900B320BC006F095
:101D8E00076A086A096A06C009F0086A076A066ADD
:101D9E0006500C1207500D1208500E1209500F1259
:101DAE000A50D8B4DDEF0EF0DFEF0EF0E7EF0EF0D5
:101DBE0005BEE6EF0EF0E4EF0EF0E7EF0EF00F8E3D
:101DCE000CC002F00DC003F00EC004F00FC005F001
:101DDE001200010E086E0250D8B4F8EF0EF0FAEFB2
:101DEE000EF00AEF0FF00250D96EDA6ADF30E832E9
:101DFE00E832070B036E070E036408EF0FF00AEFCD
:101E0E000FF061EF0FF0000E086E81EF0FF0025031
:101E1E00D96EDA6ADF30E832E832070B036E010E54
:101E2E00046E032A1DEF0FF0D8900436032E1BEF1D
:101E3E000FF00450FF0A056E0250D96EDA6ADF50B9
:101E4E00070B020DF350D10FD96EDA6ADECF06F012
:101E5E00DDCF07F006C0D9FF07C0DAFF0550DF1649
:101E6E0081EF0FF00250D96EDA6ADF30E832E832D5
:101E7E00070B036E010E046E032A48EF0FF0D89085
:101E8E000436032E46EF0FF00250D96EDA6ADF5099
:101E9E00070B020DF350D10FD96EDA6ADECF05F0C3
:101EAE00DDCF06F005C0D9FF06C0DAFF0450DF1201
:101EBE0081EF0FF00250D96EDA6ADFBC69EF0FF0D6
:101ECE006CEF0FF0010E6DEF0FF0000E036E046A53
:101EDE000450000AD8B476EF0FF00AEF0FF003505B
:101EEE00000AD8B40EEF0FF0010AD8B439EF0FF094
:101EFE000AEF0FF008501200010E096E0250D8B40E
:101F0E008BEF0FF08DEF0FF09DEF0FF00250D96EAB
:101F1E00DA6ADF30E832E832070B046E070E04642B
:101F2E009BEF0FF09DEF0FF0F4EF0FF0000E096E28
:101F3E0009EF10F00250D96EDA6ADF30E832E8327B
:101F4E00070B046E010E056E042AB0EF0FF0D89049
:101F5E000536042EAEEF0FF00550FF0A066E025046
:101F6E00D96EDA6ADF50070B020DF350C70FD96E28
:101F7E00DA6ADECF07F0DDCF08F007C0D9FF08C060
:101F8E00DAFF0650DF1609EF10F00250D96EDA6A4A
:101F9E00DF30E832E832070B046E010E056E042ABC
:101FAE00DBEF0FF0D8900536042ED9EF0FF002506C
:101FBE00D96EDA6ADF50070B020DF350C70FD96ED8
:101FCE00DA6ADECF06F0DDCF07F006C0D9FF07C014
:101FDE00DAFF0550DF1209EF10F00350046E056AA8
:101FEE000550000AD8B4FEEF0FF09DEF0FF004502D
:101FFE00000AD8B4A1EF0FF0010AD8B4CCEF0FF05D
:10200E009DEF0FF0095012002B342C34326E3250EB
:10201E00D8A414EF10F016EF10F020EF10F0000E11
:10202E00296E000E2A6E000E2B6E000E2C6E8DEF9A
:10203E0010F029C02DF02AC02EF02BC02FF02CC08E
:10204E0030F0200E30EF10F0D89030322F322E328A
:10205E002D32E82E2BEF10F02D50316E2B8EFF0E01
:10206E002916FF0E2A16FF0E2B16000E2C16960E94
:10207E00325E32BE47EF10F045EF10F05DEF10F01C
:10208E003250800A970FD8B04FEF10F051EF10F08A
:10209E0053EF10F016EF10F0D8902C322B322A326C
:1020AE002932323E53EF10F075EF10F01F0E3264EE
:1020BE0063EF10F065EF10F06DEF10F016EF10F00B
:1020CE00D89029362A362B362C3632063250D8A4E2
:1020DE0073EF10F075EF10F067EF10F03150D8B4C9
:1020EE007BEF10F07DEF10F085EF10F02C1E2B1E05
:1020FE002A1E296C000E2A222B222C2229C029F0FE
:10210E002AC02AF02BC02BF02CC02CF01200000E8F
:10211E00126E1050D8A496EF10F098EF10F09CEFBE
:10212E0010F0000E136EFFEF10F010C002F0F0EC86
:10213E000EF0136E1028026EF0EC0EF0136E000E01
:10214E00126E10501224020F026EF0EC0EF0122AD4
:10215E00030E1264B5EF10F0B7EF10F0A8EF10F009
:10216E00340E116EF20EE82EFED7112EFCD710C0D3
:10217E000DF0380E0E6E88EC15F00D0E116EFC0E75
:10218E00E82EFED7112EFCD710C00DF0380E0E6EB5
:10219E0088EC15F0640EE82EFED710C00DF0380E48
:1021AE000E6E88EC15F010C00DF0010E0E6E88EC60
:1021BE0015F010C00DF0020E0E6E88EC15F010C06A
:1021CE000DF0060E0E6E88EC15F010C00DF00C0E14
:1021DE000E6E88EC15F010C00DF0280E0E6E88EC09
:1021EE0015F010C00DF0800E0E6E88EC15F0136E0B
:1021FE0013501200046E2BEF11F092806CEF11F061
:10220E0092826CEF11F092846CEF11F092866CEF6B
:10221E0011F0928A6CEF11F096806CEF11F09682AD
:10222E006CEF11F096846CEF11F093846CEF11F05B
:10223E0093866CEF11F093826CEF11F093886CEF34
:10224E0011F093806CEF11F00450026E036A03508C
:10225E00000AD8B435EF11F06CEF11F00250000AFD
:10226E00D8B404EF11F0010AD8B407EF11F0030A45
:10227E00D8B40AEF11F0010AD8B40DEF11F0070A25
:10228E00D8B410EF11F0010AD8B413EF11F0030A0D
:10229E00D8B416EF11F0010AD8B419EF11F00F0AE5
:1022AE00D8B41CEF11F0010AD8B41FEF11F0030AD5
:1022BE00D8B422EF11F0010AD8B425EF11F0070AB5
:1022CE00D8B428EF11F06CEF11F01200000E076E6B
:1022DE0005BE76EF11F074EF11F07CEF11F0046C87
:1022EE00051ED8B0052A010E076E03BE83EF11F04E
:1022FE0081EF11F089EF11F0026C031ED8B0032AA2
:10230E00010E071A000E096E000E086E045005101D
:10231E00D8B494EF11F096EF11F0BEEF11F0010E5C
:10232E00066E9EEF11F0D89004360536062A05AEDD
:10233E00A3EF11F0A5EF11F09AEF11F0D890083637
:10234E0009360450025C05500358D8A0B1EF11F0C5
:10235E00B3EF11F0B8EF11F00450025E0550035ABE
:10236E000880D89005320432062EA5EF11F00750E2
:10237E00D8B4C4EF11F0C6EF11F0CAEF11F0086C2B
:10238E00091ED8B0092A08C002F009C003F01200D5
:10239E000250D8B4D5EF11F0D7EF11F0DFEF11F0F6
:1023AE000350D8A4DDEF11F0DFEF11F0E3EF11F0E1
:1023BE00000E076E29EF12F00250D96EDA6A060E81
:1023CE00D926DFA2EDEF11F0EFEF11F002EF12F0D0
:1023DE00C350C4CF04F0056A04C005F0046A042695
:1023EE00000E05220350D96EDA6A04C0DEFF05C066
:1023FE00DDFF27EF12F00250D96EDA6A060ED926EB
:10240E00DFB20CEF12F00EEF12F0EFEF11F0C3503F
:10241E00C4CF04F0056A04C005F0046A0426000E59
:10242E000522060E066E053405320432062E1AEF0C
:10243E0012F00350D96EDA6A04C0DEFF05C0DDFF6C
:10244E00010E076E07501200000E076E03BE34EF2A
:10245E0012F032EF12F03AEF12F0026C031ED8B007
:10246E00032A010E076E05BE41EF12F03FEF12F088
:10247E0045EF12F0046C051ED8B0052A0450051065
:10248E00D8B44CEF12F04EEF12F072EF12F0010EC4
:10249E00066E56EF12F0D89004360536062A05AEB3
:1024AE005BEF12F05DEF12F052EF12F00450025C8F
:1024BE0005500358D8A066EF12F068EF12F06CEFDB
:1024CE0012F00450025E0550035AD89005320432C1
:1024DE00062E5DEF12F00750D8B478EF12F07AEFB7
:1024EE0012F07EEF12F0026C031ED8B0032A02C067
:1024FE0002F003C003F012000550D8A489EF12F0C9
:10250E008BEF12F08FEF12F0000E076ED7EF12F076
:10251E00C2900550D96EDA6A030ED926DF50066EC8
:10252E00064606460646C0500618C70B0618C06E6D
:10253E000550D96EDA6A040ED926DF50066EC050E9
:10254E000618F80B0618C06E0550D96EDA6A050E1D
:10255E00D926DF50066E06460646C2500618C30B35
:10256E000618C26E0550D96EDA6A050ED926DF50EE
:10257E0001EC11F0F28EF28C9D8C9E9C0550D96E62
:10258E00DA6ADECF61F0DDCF62F005C002F06CECEE
:10259E0016F005C002F029EC16F0C280010E076E8F
:1025AE00075012000450D8B4DFEF12F0E1EF12F032
:1025BE00E9EF12F00450D8A4E7EF12F0E9EF12F0B1
:1025CE00EEEF12F00250F8EC17F02DEF13F004506E
:1025DE00D96EDA6A0A0ED926DE50DE10D8B4FAEFBA
:1025EE0012F0FCEF12F015EF13F00450D96EDA6A08
:1025FE000A0ED9260450E16EE26A030EE126DE5081
:10260E00E65CE650800A096EDE50800A0958D8B0A2
:10261E0013EF13F015EF13F02DEF13F00450D96EE6
:10262E00DA6A030ED926DF50056E0450D96EDA6AC7
:10263E00DF500524D96EDA6A02C0DFFF0450D96E6E
:10264E00DA6A030ED926DE2A000EDD221200010EF2
:10265E00356E20EE2FF0050EDE6AE806FDE2000E66
:10266E00366E2E50D8A43EEF13F040EF13F044EF29
:10267E0013F0000E356E79EF13F02EC002F0000E3F
:10268E00046E200E036E000E066E050E056E14EC23
:10269E0017F02E50D96EDA6A050ED926DF6A2F0E84
:1026AE001B6E790E1C6E2CC01DF02DC01EF0E0ECC2
:1026BE0016F06DEF13F036502F0FD96EDA6A2E50DA
:1026CE003624E16EE26ADFCFE7FF362A36502F0F4F
:1026DE00D96EDA6ADF50D8A477EF13F079EF13F0E2
:1026EE0062EF13F035501200010E156E1206A8EFB0
:1026FE0013F010C00DF01250800F0E6E88EC15F016
:10270E00156EC5EF13F010C00DF01250C00F0E6E07
:10271E0088EC15F0156EC5EF13F010C00DF01250C9
:10272E00940F0E6E88EC15F0156EC5EF13F010C0F9
:10273E000DF01250D40F0E6E88EC15F0156EC5EF1D
:10274E0013F01150136E146A1450000AD8B4B2EF7D
:10275E0013F0C5EF13F01350010AD8B480EF13F045
:10276E00030AD8B48AEF13F0010AD8B494EF13F029
:10277E00070AD8B49EEF13F0C5EF13F015501200F0
:10278E001650D8A4CDEF13F0CFEF13F0D3EF13F014
:10279E00000E1B6E10EF14F016C010F017C011F0E3
:1027AE0018C012F07BEC13F01B6EF7EF13F016C08F
:1027BE000DF019C0F6FF1AC0F7FF000EF86E0F0EDF
:1027CE00F76403D00800F55005D0F6CFE9FFF7CF38
:1027DE00EAFFEF500E6E05EC16F01B6E194A1A2A20
:1027EE0019C0F6FF1AC0F7FF000EF86E0F0EF76451
:1027FE0003D00800F55005D0F6CFE9FFF7CFEAFF7A
:10280E00EF500009D8A40EEF14F010EF14F0DEEF25
:10281E0013F01B501200010E0C6E0A50D8A41AEFC2
:10282E0014F01CEF14F020EF14F0000E0C6E4AEFB3
:10283E0014F06AC00DF00A50D96EDA6ADF500F0B31
:10284E000B6E0D500B18F80B0B180D6E0A50D96E3F
:10285E00DA6ADF38070B0B6E0B460B460B460D5034
:10286E000B18C70B0B180D6E0D9C0A50D96EDA6A39
:10287E00DFAE02D00D8E01D00D9E0D0E026E010E3A
:10288E00036E83EC0FF00C501200010E0C6E0A500A
:10289E00D8A454EF14F056EF14F05AEF14F0000EC3
:1028AE000C6E84EF14F069C00DF00A50D96EDA6A1E
:1028BE00DF500F0B0B6E0D500B18F80B0B180D6E27
:1028CE000A50D96EDA6ADF38070B0B6E0B460B46D1
:1028DE000B460D500B18C70B0B180D6E0D9C0A50A6
:1028EE00D96EDA6ADFAE02D00D8E01D00D9E0D0EBE
:1028FE00026E000E036E83EC0FF00C501200000EF1
:10290E00086E000E076E04500510D8B491EF14F047
:10291E0093EF14F0BBEF14F0010E066E9BEF14F064
:10292E00D89004360536062A05AEA0EF14F0A2EFB5
:10293E0014F097EF14F0D890073608360450025C66
:10294E0005500358D8A0AEEF14F0B0EF14F0B5EF69
:10295E0014F00450025E0550035A0780D8900532D9
:10296E000432062EA2EF14F007C002F008C003F0E6
:10297E001200010E0B6E0950D8A4C8EF14F0CAEF66
:10298E0014F0CEEF14F0000E0B6EF6EF14F06BC0D9
:10299E000CF00950D96EDA6ADF500F0B0A6E0C502C
:1029AE000A18F80B0A180C6E0950D96EDA6ADF385D
:1029BE00070B0A6E0A460A460A460C500A18C70B3F
:1029CE000A180C6E0C9C0950D96EDA6ADFAE02D072
:1029DE000C8E01D00C9E0C0E026EF0EC0EF00B5015
:1029EE001200880EF66E2E0EF76E000EF86E00EECA
:1029FE00BDF010EE2BF00900F5CFEEFFE550E150E3
:102A0E00FAE18E0EF66E2F0EF76E000EF86E00EED9
:102A1E006EF010EE10F00900F5CFEEFFE550E1502C
:102A2E00FAE100EE80F03D0EEE6AE806FDE100EE02
:102A3E0039F0350EEE6AE806FDE17E907E920001D9
:102A4E0037EF0CF00950D8B42FEF15F031EF15F029
:102A5E0039EF15F00B50D8A437EF15F039EF15F00C
:102A6E003DEF15F0000E0C6E57EF15F009C005F096
:102A7E000AC006F0C4EC16F00C6E09C002F082EC2F
:102A8E0017F00C6EC2B24EEF15F050EF15F049EF85
:102A9E0015F009C002F00BC003F0CFEC11F00C6E74
:102AAE000C501200010E0C6E0A50D8B461EF15F0E6
:102ABE0063EF15F073EF15F00A50D96EDA6ADF3056
:102ACE00E832E832070B0B6E040E0B6471EF15F053
:102ADE0073EF15F077EF15F0000E0C6E86EF15F014
:102AEE000AC002F0F0EC0EF00AC002F00A50D96EE5
:102AFE00DA6A000EDFBE010E036E83EC0FF00C508F
:102B0E0012000D50D8A48EEF15F090EF15F094EF43
:102B1E0015F0000E0F6EB4EF15F00DC002F0000EA2
:102B2E00036E83EC0FF00F6E0DC00AF00E380F0B14
:102B3E000B6EB6EC15F00F6E0DC00AF06FEC17F0C1
:102B4E000F6E0DC00AF00EC00BF0B6EC15F00F6E46
:102B5E000DC00AF06FEC17F00F6E0F5012000A50F6
:102B6E00020F026E0B50010B036E83EC0FF00A5036
:102B7E00030F026ED8900B30010B036E83EC0FF037
:102B8E000A50040F026E0B40E8423F0B010B036E1E
:102B9E0083EC0FF00A50050F026E0B38E8461F0B40
:102BAE00010B036E83EC0FF00C6E0C501200E20E54
:102BBE000D6E010E0E6E88EC15F0E20E166E010E05
:102BCE00176E050E186E110E196E1950D8A4100E30
:102BDE001A6EC7EC13F01F0E1D6E710E1C6E1E0EBC
:102BEE00E82EFED71C2EFCD71D2EFAD700D0E20EF3
:102BFE000D6E010E0E6E88EC15F012000D50D8A45D
:102C0E000BEF16F00DEF16F00DEF16F00DC002F0F3
:102C1E00010E036E83EC0FF00DC00AF00E380F0B91
:102C2E000B6EB6EC15F00DC00AF06FEC17F00DC080
:102C3E000AF00EC00BF0B6EC15F00DC00AF06FECFA
:102C4E0017F012000250D96EDA6A060ED926DFA0EE
:102C5E0033EF16F035EF16F039EF16F0C18AC18852
:102C6E004BEF16F00250D96EDA6A060ED926DFB097
:102C7E0043EF16F045EF16F049EF16F0C19AC198E2
:102C8E004BEF16F0C19AC198120018C01AF058EF07
:102C9E0016F017C00CF01A0E0D6E19C00EF035ECB2
:102CAE000DF01AC0F6FF100EF76EF86A0800F55018
:102CBE000009D8A465EF16F067EF16F050EF16F086
:102CCE00000E186E000E176E12000250D96EDA6AE0
:102CDE00060ED926DFA276EF16F078EF16F07BEF10
:102CEE0016F0C08E8BEF16F00250D96EDA6A060E11
:102CFE00D926DFB285EF16F087EF16F08AEF16F0C1
:102D0E00C09E8BEF16F0C08E1200010E0B6E0A5095
:102D1E00D8A494EF16F096EF16F09AEF16F0000E78
:102D2E000B6EA6EF16F00AC002F0000E036E83ECD7
:102D3E000FF00A28026E000E036E83EC0FF00B509C
:102D4E001200010E0B6E0A50D8A4B0EF16F0B2EFBF
:102D5E0016F0B6EF16F0000E0B6EC2EF16F00AC0AC
:102D6E0002F0010E036E83EC0FF00A28026E000EC5
:102D7E00036E83EC0FF00B5012000550D8A4CAEF6F
:102D8E0016F0CCEF16F0D0EF16F0000E086EDEEF58
:102D9E0016F006C007F007460746C2500718C30BC9
:102DAE000718C26E065001EC11F0010E086E0850A5
:102DBE0012001D0E1F6E1BC020F0000E246E000EA2
:102DCE00236E000E2B6E000E2A6E200E176E1CC088
:102DDE0018F01F0E196E4CEC16F01B502324D96EF2
:102DEE00DA6ADF6A120009BEFFEF16F001EF17F084
:102DFE0007EF17F008C008F009C009F013EF17F03D
:102E0E0008C00AF009C00BF00A1E0B1E0A4A0B2A54
:102E1E000AC008F00BC009F0120002C007F01EEF46
:102E2E0017F00750D96EDA6A03C0DFFF072A0506CE
:102E3E00D8A00606052806E10628D8A429EF17F023
:102E4E002BEF17F018EF17F01200010E0E6E0D504B
:102E5E00D8A434EF17F036EF17F03AEF17F0000E54
:102E6E000E6E42EF17F00DC00AF059EC15F00D285A
:102E7E000A6E59EC15F00E501200800F810F820F62
:102E8E00830F840F890F8A0F8B0F8C0F8D0F920F6C
:102E9E00930F940F950F960F000000050500023159
:052EAE0039222A323A2E
:102EB4007B0E0D6E2CEC17F0790E0D6E2CEC17F0CA
:102EC400E20E106E8EEC10F0DB0E056E83EC12F049
:102ED4007D0E096EC0EC14F012000A28026E010E79
:102EE400036E83EC0FF0030EE82EFED700000A28D1
:102EF400026E000E036E83EC0FF00B6E0B5012008B
:102F04000250D8A488EF17F08AEF17F08EEF17F06D
:102F1400000E036E91EF17F0C282010E036E035090
:102F24001200016EF2900150D8A49BEF17F09DEFB0
:102F340017F09FEF17F09FEF17F01200016EF29059
:102F44000150D8A4A8EF17F0AAEF17F0ACEF17F0D0
:102F5400ACEF17F01200016EF2900150D8A4B5EF57
:102F640017F0B7EF17F0B9EF17F0B9EF17F0120039
:102F7400016EF2900150D8A4C2EF17F0C4EF17F01D
:102F8400C6EF17F0C6EF17F01200685A622A1A62E9
:102F94002A01010101121A020A03A1923C50B36EE4
:102FA4003BC0B2FF12009E903E50CF6E3DC0CEFF9C
:102FB4001200F2944250D76E41C0D6FF12009E9286
:102FC400000ECF6E12005AEC17F012009E961200FB
:102FD400F0921200F0901200F29212009D981200EA
:102FE400A19012009E9412009E9C120012001200E6
:020000040030CA
:0E000000FF02091EFF8381FF0FC00FE00F40BB
:00000001FF
